:020000040800F2
:10000000E03C0020AD210008D15F00086521000818
:100010006521000865210008652100080000000036
:10002000000000000000000000000000ED1B0008C0
:100030006521000800000000991B0008852F0008BA
:10004000C51C0008C51C0008C51C0008C51C00080C
:10005000C51C0008C51C0008C51C0008C51C0008FC
:10006000C51C0008C51C0008C51C0008C51C0008EC
:10007000C51C0008C51C0008C51C0008C51C0008DC
:10008000C51C0008C51C0008C51C0008C51C0008CC
:10009000C51C0008C51C0008C51C0008C51C0008BC
:1000A000C51C0008C51C0008C51C0008C51C0008AC
:1000B000C51C0008C51C0008C51C0008C51C00089C
:1000C000C51C0008C51C0008C51C0008C51C00088C
:1000D000C51C0008C51C0008C51C0008C51C00087C
:1000E000C51C0008C51C0008C51C0008C51C00086C
:1000F000C51C0008C51C0008C51C0008C51C00085C
:10010000C51C0008C51C0008C51C0008C51C00084B
:10011000C51C0008C51C0008C51C0008C51C00083B
:10012000C51C0008C51C0008C51C0008C51C00082B
:10013000C51C0008C51C0008C51C0008C51C00081B
:10014000C51C0008C51C0008C51C0008C51C00080B
:10015000C51C0008C51C0008C51C0008C51C0008FB
:10016000C51C0008C51C0008C51C0008C51C0008EB
:10017000C51C0008C51C0008C51C0008C51C0008DB
:10018000C51C0008C51C0008C51C0008C51C0008CB
:10019000C51C0008C51C0008C51C0008C51C0008BB
:0C01A000C51C0008C51C0008C51C000898
:1001AC0053B94AB9002908BF00281CBF4FF0FF31D2
:1001BC004FF0FF3000F00CB8ADF1080C6DE904CE37
:1001CC0000F008F8DDF804E0DDE9022304B0704724
:1001DC00704700BF2DE9F04F07468C460846099E34
:1001EC0015463C461946002B40F0C6808242B2FAB6
:1001FC0082F746D94FB1C7F1200E24FA0EFE00FA51
:10020C0007F3BD404EEA030CBC404FEA15481FFAF9
:10021C0085FEBCFBF8F9220C08FB19C309FB0EFA8E
:10022C0042EA03439A4528D9EB1809F1FF3004D26E
:10023C009A4502D9A9F102002B44A3EB0A03A4B2FC
:10024C00B3FBF8F208FB123302FB0EFE44EA034444
:10025C00A64514D92C1902F1FF3303D2A64501D9B6
:10026C00931E2C44A4EB0E0443EA00401EB1FC4048
:10027C00002334607360BDE8F08F4846DDE7134619
:10028C00F0E702B9FFDE87BB831A01214FEA154E56
:10029C00AAB2B3FBFEFC200C0EFB1C330CFB02F8C9
:1002AC0040EA0343984563D9EB180CF1FF3004D2B4
:1002BC00984502D9ACF102002B44A3EB0803A4B27D
:1002CC00B3FBFEFC0EFB1C330CFB02F244EA0344B2
:1002DC00A2424FD92C190CF1FF3304D2A24202D9FD
:1002EC00ACF102032C44A41ABEE7C7F1200C20FA8F
:1002FC000CF800FA07F324FA0CFCBD404CEA03029C
:10030C004FEA154EABB2B8FBFEFC110C0EFB1C8079
:10031C000CFB03F941EA0040814504FA07F423D9A8
:10032C0028180CF1FF3104D2814502D9ACF102013D
:10033C002844A0EB090092B2B0FBFEFC0EFB1C00A3
:10034C000CFB03F842EA004398450FD9EB180CF16B
:10035C00FF3204D2984502D9ACF102022B44A3EB34
:10036C00080342EA014191E76146E2E76246F6E79B
:10037C006046A2E76346B6E7834205D90EB1C6E9EB
:10038C0000700021084676E7B3FA83F181B9834205
:10039C0001D3BA420AD8BC1A60EB030301209C4675
:1003AC00002E68D0C6E9004C002164E70846F7E748
:1003BC00C1F1200C8B4022FA0CF41C4302FA01F51B
:1003CC0000FA01F327FA0CF220FA0CFB4FEA14495D
:1003DC001343BBFBF9F81FFA84FE09FB18BB1A0C7C
:1003EC0008FB0EFA42EA0B42924507FA01F73ED996
:1003FC00A21808F1FF3004D2924502D9A8F10200EC
:10040C002244A2EB0A029BB2B2FBF9F809FB1822B8
:10041C0008FB0EFE43EA024296452AD9A21808F1BF
:10042C00FF3304D2964502D9A8F10203224443EAD1
:10043C000040A0FB0593A2EB0E029A42CE469846D2
:10044C0002D306D14F4504D2B9EB050E63EB040879
:10045C00013886B1B7EB0E0362EB080707FA0CFC08
:10046C00CB404CEA0303CF40C6E900379CE740463B
:10047C00C7E74346DBE73146FDE6000000B585B033
:10048C004921164805F097FC03F025FF144800F0AD
:10049C0035F858B101A800F051FC124B1B6883428F
:1004AC000AD04521104805F086FCFEE70C4A452190
:1004BC000E4805F080FCFEE7039A49210C4805F034
:1004CC007AFC49210B4805F076FC01A803F0D5FE17
:1004DC004521094805F06FFCFEE700BF7476000863
:1004EC0090760008AC010020BC7600089C760008D1
:1004FC00E0760008107700083877000808B5054B3F
:10050C001B6813B1034B186808BD03F03DF8014B91
:10051C001860F7E7A801002008B520B94FF0006378
:10052C000B60002008BD024600234521024805F05F
:10053C0042FC6FF01500F5E75C77000870B5A4B0CD
:10054C00202926D806460D46002400E00134124B23
:10055C001B68A34218DD08A800F040FF0F4B03EB0B
:10056C00C4025268126853F8341008A805F06BFBEB
:10057C0008A9684605F092FB2A463146684605F004
:10058C009AFD0028E2D101E04FF0FF34204624B060
:10059C0070BD4FF0FF34F9E78477000888770008C6
:1005AC002DE9F041B6B015461F465A4CD4F80080E0
:1005BC003F9C04943E9C039406AC02943D9C019495
:1005CC003C9C009403F088FE0446002840F0848094
:1005DC00409B23B1202206A9184605F07EFD00237E
:1005EC0000934FF6FF733A4629462EA803F0AFFE50
:1005FC000446002870D145464FF0FF361CE04FF002
:10060C00FF3619E04FF0FF3616E0BDF8D230202B44
:10061C0076D10EAA3599384605F0DCFB0446002845
:10062C0060D120220EA906A803F0B1FF05463A4B73
:10063C001B68834258D1012434AB0DF1D20235A989
:10064C002EA803F0E9FE002844DB36DCBDF8D01000
:10065C001029DAD001291FD02229EDD1002ECEDBB2
:10066C002E4B1B68B342CDDDBDF8D230802B4DD85C
:10067C000EAA3599384605F0ADFB002839D1F6B2F3
:10068C000096BDF8D2300EAA202106A800F094F8EE
:10069C0080464FF0FF36CFE7BDF8D230202B32D852
:1006AC000EAA3599384605F095FBF8B99DF8D2108D
:1006BC000EA8FFF743FF0646BEE7002C0CBF012433
:1006CC00002419D0144B1B68434517D0114BD3F899
:1006DC00008001E0A846044604B94446204636B0E2
:1006EC00BDE8F081A846F7E78046F5E7A846044642
:1006FC00F2E7A8460446EFE7A846EDE79846EBE795
:10070C004FF0FF34EAE74FF0FF34E7E74FF0FF34E8
:10071C00E4E700BF00000020AC0100208477000853
:10072C0030B589B00446302307AA04F0B6FB80BB71
:10073C002568079B1D4401AB04AA2946204604F0FA
:10074C00D9FB48BB059B072B1DD1072218490698DE
:10075C0005F0B1FCB8B9029B082B17D1082215493A
:10076C00039805F0A8FC88B907AA2946204604F08E
:10077C00AAFBA0B92368079A1344AB4212D1412AB1
:10078C0013D109B030BD6FF00200FAE76FF003002F
:10079C00F7E74FF0FF30F4E76FF00100F1E76FF08F
:1007AC000500EEE76FF00600EBE76FF00700E8E7F7
:1007BC0090770008987700082DE9F04194B08046B6
:1007CC000F4615461E469DF868201C4C54F83230D6
:1007DC00139304EBC20462681168194413A8FFF761
:1007EC009FFF10BBAA19294603A803F0A0FE0546DB
:1007FC00F0B9202F1FD1139C2278042A0FD1013479
:10080C0000F008FD009003AB20224146204605F085
:10081C00A3F8012806D1284614B0BDE8F0814FF0AA
:10082C00FF35F8E74FF0FF35F5E74FF0FF35F2E70E
:10083C004FF0FF35EFE74FF0FF35ECE78877000816
:10084C0070B586B00E464FF48173ADF804300025B8
:10085C00012D1DD8314606AB2B4413F8140C01F0B6
:10086C00C3F80446B0B930688168102302AA103965
:10087C0005F0B0FA0446306805F0ABFA54B9102212
:10088C00064902A805F017FC044618B10135DFE74C
:10089C004FF0FF34204606B070BD00BFA88600089C
:1008AC0002680B4B9A420ED1C2680389D84382422C
:1008BC0003D802EB030C012000E0002010B18B6880
:1008CC00634502D97047002070470020FAE700BF4B
:1008DC003DB8F39600B587B0134600200490039002
:1008EC0002904FF480720192044A00920A4601462B
:1008FC00FFF756FE07B05DF804FB00BF1C1200208A
:10090C002DE9F04182B005460C461746234806688F
:10091C00002003F0D0FC01A9C0B201F065F818B1B9
:10092C00304602B0BDE8F0812C2000FB0458214673
:10093C00284603F008FF20B1D8F8103013F0100F40
:10094C000AD024B90126019805F043FAE8E7019989
:10095C00284604F000F8F5E73B46019A4146284644
:10096C00FFF7B8FF0646019D29464046FFF798FF62
:10097C0018B10B4B1B68B342E5D03CB964B9094ABA
:10098C004521094805F017FA0126DCE7AA68002181
:10099C00284605F05BFAF1E7044AF1E70000002075
:1009AC00AC010020B0770008B8770008A4770008E5
:1009BC0070B505460E46002002F02AFD04460228BA
:1009CC0005D0042803D0032801D0204670BD324640
:1009DC0001212846FFF794FF044B1B688342F4D097
:1009EC00012801D00524F0E70446EEE7AC01002015
:1009FC0030B583B005460C4600230093019308469E
:100A0C0003F03DFF10B32A68144B9A4212D0EA6AE5
:100A1C00124B9A4214D0019B009A934200D9009336
:100A2C00009BA360009A2146284604F088F9002018
:100A3C0003B030BD6A460021284603F02DFEE6E7E0
:100A4C0001AA0121284603F027FEE4E704F108017E
:100A5C00002003F0CCFDA3680093E3E73DB8F396C8
:100A6C0038B504460D46FFF7C3FFEB7984F86430C4
:100A7C00033BDBB2012B0BD9EB79022B11D0042BEE
:100A8C000FD0032B0DD094F86430FF2B12D038BD4F
:100A9C00002004F010F80028EED0FF2384F8643016
:100AAC00EAE7002003F0F4FF0028ECD0FF2384F8E1
:100ABC006430E8E74521024805F07DF9FEE700BF08
:100ACC00E077000870B504460D4603F08AFE50B17D
:100ADC000646802257212E4805F06DF9012384F833
:100AEC0064309E420CD000221146204603F096FE44
:100AFC0038B9204600F08EF960B9012384F86430CF
:100B0C0070BD00225721234805F055F9012384F8C4
:100B1C006430F5E7284603F0A8FE2946204603F08A
:100B2C0074FF98B9284603F0AAFEC0B1EB79012BEB
:100B3C0022D02A4601212046FFF7E2FE164B1B6805
:100B4C00984220D0052384F86430D9E7002257213D
:100B5C00124805F030F9012384F86430D0E72946B7
:100B6C002046FFF77DFF2A460021204603F056FE63
:100B7C00012384F86430C3E729462046FFF718FFA9
:100B8C0084F86400BCE7EB7984F86430B8E700BF04
:100B9C00EC77000830780008AC0100205C78000885
:100BAC002DE9F84F884691461F46DDF828A00B9E8C
:100BBC0000250FE023460F4AE919404605F00AF9D3
:100BCC00A0B923460B4A05EB0A01484605F020F96B
:100BDC0070B92544B54206D2741BB4F5806FE9D9BF
:100BEC004FF48064E6E70020BDE8F88F0120FBE7B6
:100BFC000120F9E71C020020F0B585B004460E4632
:100C0C003E4B1F683E4B43623E4B03653E4BC365F8
:100C1C0000250CE02946002003F04DFB2C2305FB9E
:100C2C0003F32033E118C0B200F0DEFE0135012DD4
:100C3C00F0D904F15801022000F0D6FE6946204696
:100C4C00FFF740FF94F864308DF80730042B25D85B
:100C5C00022B2ED2012B31D194F86430FF2B31D0E2
:100C6C00012B34D12268294B9A4239D1204603F00A
:100C7C00F1FC0546002839D10021204603F0E8FCA0
:100C8C00054698BB10220021684605F055FA3146FE
:100C9C00204603F0DEFD1E4B1F6827E0052B0DD10F
:100CAC00002003F008FF0028D6D0FF2384F864301E
:100CBC00D2E76946204603F0F3FDCDE7FF2384F825
:100CCC006430C9E74521134805F075F8FEE76A461C
:100CDC000021204603F0A2FD05460028C2D005E005
:100CEC00002345210C4805F066F80325204603F047
:100CFC00C0FC05B93D46284605B0F0BD00000020FB
:100D0C001C0600201C0E00201C0A00203DB8F39687
:100D1C00AC010020E07700088878000808B520B105
:100D2C006C22002105F008FA08BD6C220021024853
:100D3C0005F002FAF8E700BFB001002010B5044638
:100D4C000020FFF7EBFF21460148FFF755FF10BDD0
:100D5C00B00100202DE9F04F83B005468A4691463C
:100D6C0003F034FC80462946002003F01DFC071ECE
:100D7C0044DB0024A346264607E026B1BBF1000F56
:100D8C0002D033461FE001260134A7421ADDDAF8FF
:100D9C00681001230DF1070201FB0481284605F0C0
:100DAC0019F800282CDB01220DF10701284605F06B
:100DBC00D2FE0028E1D0002EE6D0BBF1000FE3D12B
:100DCC00A346E1E70023A3B9DEB1BBF1000F00D0CD
:100DDC005C460E4B83FB0423A3EBE4735A1CC9F84B
:100DEC00002003EB4303E41A013489F80440002685
:100DFC0007E04521064804F0DEFFE5E7072600E0A2
:100E0C000126304603B0BDE8F08F00BF565555554E
:100E1C00B07800082DE9F843846AD0F85480802C0F
:100E2C000DD8B8F1800F0AD8836D9F684FF0000E73
:100E3C00F4467146764675467246734619E057215C
:100E4C00344804F0B8FF0020BDE8F883D0F82490B3
:100E5C0009EBC109D9F804904B44D0F8509009EB38
:100E6C00CC09D9F804904A4401310CF1010C93429D
:100E7C0030D08C4201D8E0453DD99A42E6D09A4216
:100E8C0013D9D0F8249009EBC109D9F804904B443C
:100E9C00BEF1020F03D001314FF0010EE7E75721ED
:100EAC001D4804F088FF0020CEE7D0F8509009EBE5
:100EBC00CC09D9F804904A44BEF1010F04D00CF1CE
:100ECC00010C4FF0020ED2E75721134804F073FFC8
:100EDC000020B9E71D4416449F4206D3974204D321
:100EEC004FF0000E72467346C3E757210B4804F0CF
:100EFC0062FF0020A8E78C4203D1E04501D1AE424D
:100F0C0005D05721064804F056FF00209CE701202D
:100F1C009AE700BFD4780008047900083C790008EF
:100F2C007479000810B588B004A9012005F0DCFE26
:100F3C0006A9022005F0D8FE9DF81030012B29D00F
:100F4C00032B25D0354B9DF811209DF812109DF8E0
:100F5C001300029001910092314A4921314804F06A
:100F6C002AFF9DF81830012B18D0032B14D02B4BD3
:100F7C009DF819209DF81A109DF81B000290019104
:100F8C000092294A4921274804F015FF002413E058
:100F9C00264BD8E7264BD6E7244BE9E7244BE7E76B
:100FAC00244A00E0244A4921244804F004FF204646
:100FBC0032E0234AF7E70134032C28D89DF81010AF
:100FCC00204B13F8240005F0B7FD0028F3D01D4B7F
:100FDC0003EB84039DF81810587805F0ADFD00283C
:100FEC00E9D0184B03EB84039B78042B03D09DF8BA
:100FFC0012209342DFD1134B03EB8404E478002CD2
:10100C00D0D0012CD5D0022CCAD00F4ACBE7492125
:10101C000E4804F0D0FE002008B010BDA4790008E2
:10102C00EC790008FC790008407A0008B0790008D7
:10103C00A8790008DC790008B8790008487A00081B
:10104C00C0790008787A0008C8790008607A00082E
:10105C0031B108B50A46034B1B680021984708BDFF
:10106C00704700BF04000020F0B589B005460C465F
:10107C00082204F060F80027029701970097E36AB2
:10108C000393236B0493636B0593A36B0693E36B3E
:10109C00079308236A466946684604F097F80646A3
:1010AC0008236A462946284604F090F80644236B28
:1010BC000393636B0493A36B0593E36B06930797FE
:1010CC0008236A466946684604F080F806440823FB
:1010DC006A462946284604F079F80644236A0093A8
:1010EC00636A0193A36A0293059704970397A36B12
:1010FC000693E36B079308236A462946284604F0B7
:10110C0065F80644636A0093A36A0193E36A029349
:10111C00636B0393A26B0492E26B05920693236AB2
:10112C00079308236A462946284604F04FF80644DC
:10113C00E36A0093236B0193636B02930597049707
:10114C000397236A0693A36A079308236A462946E2
:10115C00284604F07BF8361A236B0093636B0193DB
:10116C00A36B0293E36B039305970497636A06934F
:10117C00E36A079308236A462946284604F066F872
:10118C00361A636B0093A36B0193E36B0293236A90
:10119C000393636A0493A36A05930697236B0793DF
:1011AC0008236A462946284604F050F8361AA36BE1
:1011BC000093E36B01930297636A0393A36A04930E
:1011CC00E36A05930697636B079308236A462946DF
:1011DC00284604F03BF8361A0FD508230C4A29464A
:1011EC00284603F0F3FF3618F7D40FE00823084A1B
:1011FC002946284604F02AF8361A002EF6D1082281
:10120C002946034803F0A2FF0128EFD109B0F0BD35
:10121C008C7A000800487047887A00082DE9F04F56
:10122C0093B08A46D0F800E045688468D0F80CC0CA
:10123C00026947698669C1694FF0000846E0D146EA
:10124C0019F801BB9AF801301B0443EA0B6399F8B7
:10125C0001A043EA0A2309F1030A99F8029043EA30
:10126C0009030DF1480909EB880949F8403C4FEA9C
:10127C00F22989EAB21989EA7269494402EA070932
:10128C0026EA020B89EA0B094944DFF84C9159F81C
:10129C00289049440B444FEA7E3181EABE0181EA31
:1012AC00BE5185EA040909EA0E0905EA040B89EA2C
:1012BC000B09894408F1010831463E4617460CEBF0
:1012CC000302A4462C46754603EB090EB8F10F0F2A
:1012DC00B5D9B8F13F0F63D808F1010909F00F0334
:1012EC000DF1480A0AEB830353F8403C4FEAB34B29
:1012FC008BEAF31B8BEAD30B08F10E0303F00F03FD
:10130C000AEB830353F840AC4FEAFA4383EA7A437F
:10131C0083EA9A2308F00F0A5B44019308F1090B46
:10132C000BF00F0B12AB03EB8B0B5BF840BC019B70
:10133C009B4412AB03EB8A0A5AF8403C5B444AF8D4
:10134C00403C4FEAF22A8AEAB21A8AEA726A51449B
:10135C0002EA070A26EA020B8AEA0B0A5144DFF872
:10136C0078A05AF8288041440B444FEA7E3A8AEA26
:10137C00BE0A8AEABE5A85EA040101EA0E0105EAB0
:10138C00040881EA08018A44C84631463E4617469D
:10139C000CEB0302A4462C46754603EB0A0E98E7A9
:1013AC0003687344036043682B444360836823449D
:1013BC008360C3686344C360036913440361436976
:1013CC003B444361836933448361C3690B44C36108
:1013DC0013B0BDE8F08F00BF387B0008E0B110B54A
:1013EC0004467022002104F0C5FC0C4B23600C4B0E
:1013FC0063600C4BA3600C4BE3600C4B23610C4BF8
:10140C0063610C4BA36103F17453A3F52303A3F69F
:10141C009243E361012010BD0020704767E6096A22
:10142C0085AE67BB72F36E3C3AF54FA57F520E51F9
:10143C008C68059BABD9831F08B50B6801330B6017
:10144C00014B1B68984708BD08000020014B186031
:10145C00704700BF0800002000B583B002460B4661
:10146C000021019101A9034800F006F803B05DF8D2
:10147C0004FB00BF451400082DE9F04F8FB0054662
:10148C008A46079302F1FF3B002475E220460FB019
:10149C00BDE8F08F0BF1020B0020014603904FF0DA
:1014AC00FF33019302939BF800301A467A2B00F21B
:1014BC001282DFE813F07B001002100210021002FF
:1014CC001002100210021002100210021002100280
:1014DC001002100210021002100210021002100270
:1014EC001002100210021002100210021002100260
:1014FC00100210021002730210021002730210028A
:10150C007D001002100210021002AF0073021002D4
:10151C0070028200100289009300930093009300E4
:10152C00930093009300930093001002100210029A
:10153C00100210021002100210021002100210020F
:10154C0010021002100210021002100210021002FF
:10155C0010021002100210021002100210021002EF
:10156C001002100210028E01100210021002100262
:10157C001002100210021002100210020202DB0014
:10158C00100210021002C400DB0010021002C40092
:10159C001002100210028E0110021002F001100253
:1015AC00DB00100210028E011002C40020466EE710
:1015BC0051462520A8470134DEE1039B03F0FE03CE
:1015CC0003930023019313E0029B002B06DA019B8B
:1015DC00002B03DA039B002B00F0E281019B002B14
:1015EC0009DB03EB830302EB4302A2F1300301930B
:1015FC000BF1010B57E7029B002B08DB029B03EB63
:10160C00830302EB4302A2F130030293F0E70023C1
:10161C000293F3E7019B002B05DB079B1A1D079236
:10162C001B680193E4E7079B1A1D07921B68029342
:10163C00002BDDDA5B42029302230393D8E7682B7D
:10164C000BD06C2B0ED059B151462520A8475146D2
:10165C009BF80000A84702348EE16829F1D1482399
:10166C001946C5E76C29EED14C23F9E77A290ED03F
:10167C006C296BD04C297AD0752B00F09080079B8D
:10168C001A1D07921B681F464FEAE37808E0752B7A
:10169C0055D0079B1A1D07921B681F464FEAE3782B
:1016AC009BF80030752B02D0B8F1000F7EDB2028A0
:1016BC0000F085802B2800F08780A54E4FF00009A4
:1016CC00CDF814B006940A22002338464146FEF7A2
:1016DC0067FDCDF8109009F1FF3930320DF135036B
:1016EC0003F80920BB4644460A22002338464146EB
:1016FC00FEF756FD07468846BBF10A0F74F100034E
:10170C00E1D2DDF814B0069C049BC3F1010814333C
:10171C0008AAD3180493019B002BC0F2EF80029B04
:10172C00A3EB0807019AA2EB0809B9F1000F00DD41
:10173C009F1A039B13F0020F40F0F380EAE0079B23
:10174C001A1D07921F684FF00008A9E7752B07D0E8
:10175C00079B1A1D07921B681F464FEAE3789FE709
:10176C00079B1A1D07921F684FF0000898E7752B0E
:10177C000AD0079B073323F0070303F108020792F3
:10178C001F685B6898468BE7079B073323F00703BA
:10179C0003F1080207921F68D3F8048080E7079BC7
:1017AC001A1D07921F684FF0000879E77E423746F2
:1017BC0068EB4808029B013B0293664E7EE7029B56
:1017CC00013B0293644E79E7029B013B0293634E0B
:1017DC0074E7702B0ED1079B1A1D07921B681A46D3
:1017EC00002123BB4FF00508002301935C4B0493AD
:1017FC00574E90E76C290AD04C290ED0079B1A1D26
:10180C0007921A680021232811D0514E18E0079B2B
:10181C001A1D07921A680021F5E7079B073323F07E
:10182C00070303F1080207921A685968EBE79BF863
:10183C00003013F0200F0BD04A4E029B023B029358
:10184C009BF8007007F06007393F4FF0000E14E072
:10185C00454EF2E70EF1FF3030330DF1350C0CF83C
:10186C000030130943EA01734FEA111C102A71F17D
:10187C00000208D386461A46614602F00F03092B74
:10188C00E8D93B44E6E7CEF101080EF1140308AAAF
:10189C00D31804933FE7079B1A1D07921B68049308
:1018AC00184604F0F4FB8046019B002B1CDB8342A2
:1018BC001EDB00230193264E2DE7079B1A1D079272
:1018CC001B688DF820304FF001080023019308AB02
:1018DC0004931F4E1FE751462520A84751469BF8FD
:1018EC000000A847023447E000230193184E12E78A
:1018FC00DDF8048000230193154E0CE7039B13F0D5
:10190C00010F3FF40CAF029B019308E751462020D6
:10191C00A8470134013FF9D503E001365146A847E9
:10192C00013430780028F8D103E051463020A84724
:10193C000134B9F10109F8D5049E04E0514616F8BA
:10194C00010BA8470134B8F10108F7D512E000BF2C
:10195C0064810008987C00089C7C0008A07C00082E
:10196C00AC7C0008A87C0008A47C00085146202010
:10197C00A8470134013FF9D50BF101069BF8010092
:10198C0025283FF487AD00283FF480AD5146A84789
:10199C000134B346F0E70223039329E6184627E601
:1019AC000123039324E600BF0C4B1A6842F4007227
:1019BC001A601A6842F480621A604FF01002EFF35A
:1019CC00118382F31288BFF36F8F83F31188BFF3F7
:1019DC006F8F034B034A1A6000207047003C024093
:1019EC00500000200024F4000F4B1B68B3B130B43E
:1019FC00002300E001330D4A1268934208DA1A0101
:101A0C00094C246804EB0315A25C9042F2D100E06F
:101A1C00002535B10D60002030BC70476FF00C0014
:101A2C0070476FF00100F7E70C000020F47C000811
:101A3C0000B58BB003AB0093024B04F070FA0BB003
:101A4C005DF804FBEF5E0008014910220A60704744
:101A5C0010ED00E072B6404080F31188BFF36F8F39
:101A6C00BFF34F8F30BF62B6BFF36F8F704700BFAD
:101A7C0010B582B004468368009343680268452120
:101A8C000B4804F098F9636900932369E2684521D7
:101A9C00084804F090F9E2694521074804F08BF9F5
:101AAC00A2694521054804F086F902B010BD00BFBB
:101ABC00F87C00082C7D0008607D0008747D00080F
:101ACC0040B2002807DB00F01F02400901239340BD
:101ADC00014A42F82030704700E100E0013140B289
:101AEC00002808DB0901C9B200F1604000F5614033
:101AFC0080F80013704700F00F000901C9B2014BC8
:101B0C001954704714ED00E030BFFFF7FDBF00BF64
:101B1C0008B50F4B0F4A22F07F029A60BFF34F8F2C
:101B2C00BFF36F8FD3F8882022F47002C3F888209B
:101B3C00EFF3148323F0040383F31488BFF36F8F44
:101B4C0001F06AFE02F00EFA00F010FB01F07AFED2
:101B5C0000ED00E000000008094A93685867094945
:101B6C000968996708494B6843F080534B60002320
:101B7C0083F31188BFF36F8F9368986F704700BF22
:101B8C00A4140020E086000800ED00E012498A68E9
:101B9C004FF030001044EFF3098C80E8F01F102058
:101BAC0080F31288BFF36F8F0C4F4FF000668A6979
:101BBC008A603E60506F0023536780F3118804B530
:101BCC00104600F027FBBDE8044002F1300090E81D
:101BDC00F01F8CF309887047A414002004ED00E07A
:101BEC001EF0040F0CBFEFF30880EFF3098081693E
:101BFC0011F8021C0229FFD001B504F0D7F901BD80
:101C0C0010B4A2F120040D4942F8081C21F0010186
:101C1C0042F8081C42F8203C019B42F81C3C029BF9
:101C2C0042F8183C039B42F8143C4FF0807342F886
:101C3C00043C04650023436710BC7047A95D000891
:101C4C00114B9A68EAB110F1160F10D0536EA3F134
:101C5C00200C844505D8834205D98B4205D8002138
:101C6C000AE0002108E0002106E0012104E0536EA7
:101C7C008B4294BF0021012109B900207047506E9E
:101C8C0070470020704700BFA414002008B50D4613
:101C9C001446084B986000F0BDFA204685F309887D
:101CAC00002163B681F31188BFF36F8F00220023EC
:101CBC0004F074F8A414002001B5EFF30580A0F132
:101CCC0010004FEAC0000449014409C99847BDE817
:101CDC000140024908470000D8720008ED1C0008BA
:101CEC00044B99689869884203D003494FF080529D
:101CFC000A607047A414002004ED00E070B505469E
:101D0C000E46144645212E4804F055F82D4B9B6A7F
:101D1C0013F4805F24D12B4B9B6A13F4006F24D1F6
:101D2C00284B9B6A13F4007F24D1264B9B6A13F437
:101D3C00806F35D1234B9B6A13F4807F35D1214BB7
:101D4C009B6A13F4005F35D11E4A936A43F47F43B8
:101D5C0093620121284604F03BF92070002070BDED
:101D6C004521194804F027F8D5E74521174804F018
:101D7C0022F8D5E74521164804F01DF8114B9A6B53
:101D8C009B6A13F4004FD0D04521124804F013F88D
:101D9C00002ECAD00B4A936A23F400439362C4E723
:101DAC0045210D4804F007F8C4E745210B4804F021
:101DBC0002F8C9E745210A4803F0FDFFC4E700BF5C
:101DCC00A87D000800ED00E0C47D0008DC7D000863
:101DDC00F47D0008147E0008307E0008507E000858
:101DEC00707E000808B54521234803F0E4FF234B1F
:101DFC009B6A13F0007F21D1204B9B6A13F0807FEC
:101E0C0021D11E4B9B6A13F4002F21D11B4B9B6AD3
:101E1C0013F4802F21D1194B9B6A13F4003F21D16D
:101E2C00164B9B6A13F4803F21D1144A936A6FEAD4
:101E3C0003436FEA13439362002008BD4521104809
:101E4C0003F0B9FFD8E745210E4803F0B4FFD8E7FB
:101E5C0045210D4803F0AFFFD8E745210B4803F0AF
:101E6C00AAFFD8E745210A4803F0A5FFD8E745218A
:101E7C00084803F0A0FFD8E7A47E000800ED00E0BE
:101E8C00C47E0008DC7E0008FC7E0008207F000871
:101E9C004C7F00086C7F000808B500230B704521AF
:101EAC00014803F088FF08BD9C7F000808B50F2986
:101EBC0007DC054AA1F110034521044803F07BFF20
:101ECC0008BD034AF6E700BFE47F0008FC7F00086A
:101EDC00C87F0008F8B505460C461646452139481A
:101EEC0003F069FF384B9B6A13F0100F30D1364B5F
:101EFC009B6A13F0080F30D1334B9B6A13F0020F1F
:101F0C0030D16FF01507304B9B6A13F0010F43D1A2
:101F1C002D4B9B6A13F0200F43D12B4B9B6A13F074
:101F2C00100F04D1284B9C6A14F0020404D0264BE9
:101F3C005C6814F4006439D123498B6A43F0FF03C5
:101F4C008B620121284604F043F830702046F8BD1E
:101F5C0045211E4803F02FFFC9E745211C4803F01B
:101F6C002AFFC9E745211B4803F025FF164B5F6B81
:101F7C009B6A13F0800F02D16FF01507C3E73A4646
:101F8C004521154803F017FF002CBCD00E4A936A6C
:101F9C0023F080039362B6E74521104803F00BFF52
:101FAC00B6E745210E4803F006FFB6E7294638464A
:101FBC00FFF746FE04460028BED080F309880224B1
:101FCC00BAE700BF1480000800ED00E03080000884
:101FDC00DC7D00086880000888800008A480000868
:101FEC00707E000870B506460D464521274803F063
:101FFC00E2FE00232B70264BDC6A14F0020409D19C
:10200C00234BDB6A002B0BDB214BD86A10F0804092
:10201C000CD170BD45211F4803F0CDFE0020F8E720
:10202C0045211D4803F0C7FE2046F2E745211B4819
:10203C0003F0C1FEB36933F8022C4DF602739A42D9
:10204C000DD0134B93F8283083B9114B93F82930EA
:10205C0093B90F4B5B8D9BB2A3B92046D9E732687D
:10206C0045210F4803F0A7FE3068D2E72A4601212C
:10207C003046FFF72FFFCCE72A4601213046FFF709
:10208C003DFEC6E73046FFF7ADFEC2E7C88000084C
:10209C0000ED00E0E48000080C81000820810008BD
:1020AC004481000870B58AB0254B5D68C5F30805FE
:1020BC00002383F31188BFF36F8F02F07F43B3F1DA
:1020CC007F4F1ED102F00C03082B10D012F0080F1A
:1020DC0014D00C4600260DF127022946204603F0A9
:1020EC0079FF05469DF8273073B10AB070BD4521C4
:1020FC00144803F060FE00263446ECE70446012643
:10210C00E9E700263446E6E72022214601A803F041
:10211C00E4FF4EB1089BC3F308025AB96FEA53238C
:10212C006FEA4323089305E0089B23F4FF7323F025
:10213C000103089301A9284603F02CFFD5E700BF43
:10214C0000ED00E068810008024A536943F0100377
:10215C005361704700ED00E0EFF30880EFF3098165
:10216C0001B57246FFF79EFF01BD00BF002207E0DC
:10217C0003F1604303F56143102183F8001301322E
:10218C005A2A09DC53B2002BF2DA02F00F01034B8E
:10219C000B4410211976F2E7704700BFFCEC00E00D
:1021AC00102080F3118808484FF40261401880F326
:1021BC000988EFF314800221084380F31488BFF3DD
:1021CC006F8FFFF7A5FC0000603E002008B5084BA0
:1021DC009B68834202D001F09DFE08BDEFF305839E
:1021EC00002BF8D0034A536843F080535360F2E756
:1021FC00A414002000ED00E008B5034B034A0121B4
:10220C00034803F03CFF08BD000003200000002041
:10221C009C81000808B5436E203B054803602023D1
:10222C004360044B8360012103F02DFF08BD00BF08
:10223C001C13002000000B15084AC2F898000B680C
:10224C0023F01F03034343F01003C2F89C308B6848
:10225C0043F00103C2F8A030704700BF00ED00E06E
:10226C0010B50446072803D8FFF7E6FF204610BD3B
:10227C0002464521024803F09EFD6FF01500F6E77B
:10228C00A88100082DE9F84380460F46994616466A
:10229C00002509E02146F0B203F0D2FE064610F10B
:1022AC00160F19D001360135BD4215DA05EB450480
:1022BC0008EB84046268002AF5D0B9F1000FE9D06C
:1022CC00204603F0ACFE0028E4D12A464521044800
:1022DC0003F071FD6FF015063046BDE8F88300BFC2
:1022EC00D481000810B5034C01232278FFF7CAFFF4
:1022FC00207010BDD814002008B50023094A1278AC
:10230C00FFF7C0FF10F1160F0AD0034606E0064A8D
:10231C00C2F898300021C2F8A0100133072BF6DD6B
:10232C0008BD00BFD814002000ED00E0044B0522CE
:10233C00C3F89420BFF34F8FBFF36F8F704700BF6C
:10234C0000ED00E0BFF35F8F024B0022C3F8942036
:10235C00704700BF00ED00E038B50E4B1D68082D2E
:10236C0015D8FFF7EFFF002409E00A4B596804EB7E
:10237C004402930019442046FFF75EFF0134A54246
:10238C00F3D8054B1D70FFF7D1FF002038BD4FF07F
:10239C00FF30FBE70C820008D8140020014B1860BA
:1023AC00704700BF1000002070B504460D4616693A
:1023BC0000E00134AC4214DA1F2CFADC0123A340F8
:1023CC00084A526933EA0202F3D1064A536156F8BD
:1023DC003430002BEDD006EBC402516820469847F0
:1023EC00E7E770BD003C014008B501238340044A77
:1023FC0011680B431360034B1856FFF761FB08BDC4
:10240C00003C01404C8200081F2806DC012383405D
:10241C00024A106820EA030010607047003C01403B
:10242C00032932D8DFE801F0020F1B27012303FA3E
:10243C0000F0164B9A6822EA00029A60DA6822EAE7
:10244C000000D8607047012303FA00F00F4B9A6824
:10245C0002439A60DA6822EA0000D86070470123D0
:10246C0003FA00F0094BDA680243DA609A6822EA50
:10247C00000098607047012303FA00F0034B9A6840
:10248C0002439A60DA681043D8607047003C014000
:10249C00074B53F830303BB9054B43F8301003EB86
:1024AC00C0004260002070476FF00F00704700BF03
:1024BC0028130020034B002243F8302003EBC00309
:1024CC005A6070472813002086B00B68062B3DD845
:1024DC00DFE803F0041026313C3C1B004B681D4A1E
:1024EC00116B19431163126B13400193019B002074
:1024FC0006B070474B68174A516B19435163526BC6
:10250C0013400293029B0020F2E74B68114A916B37
:10251C0019439163926B13400393039B0020E7E7ED
:10252C004B680C4A116C19431164126C13400493E0
:10253C00049B0020DCE74B68064A516C194351643C
:10254C00526C13400593059B0020D1E76FF085007A
:10255C00CEE700BF003802400B68062B2DD8DFE811
:10256C0003F0040C1C242C2C14004968144A136B23
:10257C0023EA01031363002070474968104A536B28
:10258C0023EA010353630020704749680C4A936B9C
:10259C0023EA01039363002070474968084A136CCF
:1025AC0023EA01031364002070474968044A536C02
:1025BC0023EA01035364002070476FF085007047D5
:1025CC0000380240F8B50C461546104B1F68042124
:1025DC00384603F066FE06460221384603F061FEDB
:1025EC002368062B0ED8DFE803F00404070A0D0D50
:1025FC0004002F600020F8BD2E600020FBE728604F
:10260C000020F8E76FF08500F5E700BF50000020D0
:10261C000F4B1B6813F0020F09D10D4A136843F0DE
:10262C00010313600A4B1B6813F0020FFAD0084B1E
:10263C009A6822F003029A609A6822F0F002104322
:10264C009860034B9B6813F00C0FFAD1704700BFD6
:10265C000038024010B586B003A803F019FE00F054
:10266C0025F8684603F020FE0020FFF7D1FF0D4C43
:10267C00236823F080732360636823F0706343F056
:10268C00E063636003AB6A460121074800F060FE1B
:10269C00236823F00103236003F00EFE002006B034
:1026AC0010BD00BF0038024000127A0082B0064B09
:1026BC001A6C42F080521A641B6C03F08053019325
:1026CC00019B02B0704700BF0038024010B50446B1
:1026DC000A2807D0074B1868E1B283685B689847F3
:1026EC00204610BD034B186883685B680D21984722
:1026FC00F0E700BFE013002010B5044C2046FFF7B4
:10270C004DFE2046FEF7A2FE10BD00BFD9260008E4
:10271C0008B50648064B186004F00DFB18B1FFF71E
:10272C00EBFF002008BD6FF01200FBE79072000871
:10273C00E01300204A4201F0030302F0030258BFE9
:10274C00534204339A000F2393400A46002919DBA5
:10275C0043EAA2035FFA83FC0CF102010B4A52F824
:10276C0021101A0C21EA134392FAA2F262B1B2FAC6
:10277C0082F200FA02F21A430CF1020C034B43F8FA
:10278C002C207047CA1CE3E72022F2E700380140F6
:10279C00424200F0030302F0030258BF53420433D9
:1027AC009A000F2393400246002810DB43EAA20054
:1027BC00C3B20233084A52F82320030C02EA104039
:1027CC0093FAA3F32BB1B3FA83F3D8407047C21C2E
:1027DC00ECE72023F9E700BF0038014010B544684E
:1027EC0069B10C340D4804F0A6FA28B10B48836883
:1027FC001B682146984710BD6FF01200FBE70C34A4
:10280C00064804F098FA28B1044883685B682146AE
:10281C009847F0E76FF01200EDE700BF5871000821
:10282C0070B582B006460D460D4B93E8030002AB23
:10283C0003E903000B4804F07EFA48B109488368A9
:10284C001B686946984704462CB1204602B070BDFF
:10285C006FF01204F8E729463046FFF76BFFF4E7F8
:10286C006C76000858710008F8B50C46114647689C
:10287C000269B1F5005F1FD01D46B1F5804F34D011
:10288C001D492046FFF704FE064688BB2146B86862
:10289C00FFF7C6FFB5F5802F23D0B5F5C02F22D09A
:1028AC00B5F5003F1BD031462046FFF7B9FD204659
:1028BC00FFF79AFD3046F8BD2046FFF769FFBB686D
:1028CC00984201D00026F5E72046FFF79DFD2046F3
:1028DC00FFF7F0FD00212046FFF7A2FDF2E70221F1
:1028EC00E2E70121E0E70321DEE76FF08506E1E78F
:1028FC006FF00F06DEE700BFC762000800487047A4
:10290C009484000870B50D4616461C4600232246DA
:10291C0003F091FF10B154B9002070BD23462A4634
:10292C004521074803F047FA6FF01500F5E72246FA
:10293C0005F10061304603F0D0FB0020EDE700BF4D
:10294C00CC83000870B5064604F0A7FB0A220023CE
:10295C00FDF726FC10F5FA5441F10005304603F062
:10296C00A0FE00281ADB33691B68DB6813F4803F78
:10297C0012D004F092FB0A220023FDF711FC8442D2
:10298C0075EB0103EFDA4FF4FA524521054803F0D9
:10299C0012FA6FF0040000E0002070BD6FF004002C
:1029AC00FBE700BFFC830008F8B503691D680F4600
:1029BC0039B9002687B12B6943F000432B613046AF
:1029CC00F8BD0446FFF7BEFF06460028F2D020698A
:1029DC00043000F0F9FFF2E72B69002BEFDA034B20
:1029EC006B6003F188336B60E9E700BF2301674537
:1029FC00F8B504460E461546012303F01CFF18B12A
:102A0C005DB900252846F8BD2B46324645211648AF
:102A1C0003F0D1F96FF01505F4E7206904304FF09D
:102A2C00FF324FF0FF3300F0F1FF00212046FFF79B
:102A3C00BBFF074680B12A463146204603F03CFED8
:102A4C0001212046FFF7B0FF054607B13D4620693E
:102A5C00043000F0B9FFD5E72A463146204603F092
:102A6C0003FF0746E7E700BF148400082DE9F04197
:102A7C0005460F4616461C460123224603F0DBFE94
:102A8C0020B164B900242046BDE8F08123463A46C3
:102A9C004521154803F08FF96FF01504F3E7286909
:102AAC0004304FF0FF324FF0FF3300F0AFFF002146
:102ABC002846FFF779FF804668B101212846FFF7C9
:102ACC0073FF0446B8F1000F00D044462869043067
:102ADC0000F07AFFD7E7234632463946284603F002
:102AEC00E5FE8046E9E700BF44840008024B0B601A
:102AFC0006231360704700BF9C8400082DE9F04743
:102B0C0082B00C46066943681D680A79012A00F0F8
:102B1C009580022A40F095804FF4806C6379012BEC
:102B2C0000F09580022B00F09480002B00F08C803C
:102B3C004FF40057A179042900F08E80002A40F050
:102B4C008E804FF0000894F807A0BAF1010F00F046
:102B5C0089804FF0000EA2F103095FFA89F9B9F1EF
:102B6C00010F40F2D88012B1042900F0D780002B5D
:102B7C0000F0D780022B00F0D780022940F2D780DA
:102B8C00042900F0D780BAF1000F13D06E4B9D4290
:102B9C000CD0A3F54C439D4208D003F580639D42B5
:102BAC0004D003F54C439D4240F0C780BAF1010FAD
:102BBC0040F0C680EB6823F40053EB6043681A685E
:102BCC00D36803F4C0639C4505D0D36823F4C06379
:102BDC004CEA0303D36043681A68136903F4405347
:102BEC009F4204D0136923F440531F431761436879
:102BFC001A68D36803F48053984505D0D36823F43E
:102C0C00805348EA0303D36043681A68536903F49A
:102C1C0040739E4505D0536923F440734EEA030379
:102C2C005361D4F80080336898451ED1EB6843F4A7
:102C3C000053EB60002002B0BDE8F0874FF4C06C8D
:102C4C006CE74FF0000C69E74FF4805772E70027F0
:102C5C0070E74FF440576DE74FF4805873E74FF42B
:102C6C00805870E74FF4407E75E70369D0F8049004
:102C7C0059F8087BD3F804A0504604F05CF80028FF
:102C8C003ED0DAF80830DB68002B3CD001AA49466C
:102C9C0050469847002839DBFB6823F40043FB605F
:102CAC00019B0021D8184941C01841F10001C9000D
:102CBC0041EA5071C000C0184FEA88024FEA98737D
:102CCC0041F10001FDF76CFA2049A1FB00235B09DF
:102CDC001A0192B24FF0640C0CFB13031B0132333C
:102CEC00A1FB0313C3F34F1303F0F0010A4492B298
:102CFC0003F00F0313449BB2BB602368336095E76A
:102D0C006FF01200C6E76FF05700C3E7452110487B
:102D1C0003F051F8F1E76FF085008CE76FF0850058
:102D2C0089E76FF0850086E76FF0850083E76FF029
:102D3C00850080E76FF085007DE76FF085007AE70E
:102D4C006FF0850077E700BF001001401F85EB5145
:102D5C00CC8400082DE9F04782B007464668D0F8CD
:102D6C001080354655F8084B6348C8F8040003F04A
:102D7C00E2FF002831D0604883681B6829469847D9
:102D8C000546002D40F0B38001AA0021F06903F044
:102D9C0077FE002805DB019B00221979186803F0E7
:102DAC0089FE0028C0F2A680E36823F40053E36098
:102DBC0004F10C0353E8003F43F00C0304F10C0145
:102DCC0041E800329146002AF2D17269022A0DD0F4
:102DDC00012A7CD022B94A460CE06FF01205D0E7EC
:102DEC005721464802F0E7FF4A4603E04FF4805271
:102DFC004FF48069E36823F4B05342EA090943EACB
:102E0C000903E360236923F440532361337C2BB122
:102E1C007B681A68536943F440735361D8F8008097
:102E2C003B69D7F8049059F8087BD3F804A05046B6
:102E3C0003F081FF00284FD0DAF80830DB68002B54
:102E4C004DD001AA49465046984700284ADBFB68FA
:102E5C0023F40043FB60019B0021D8184941C018A2
:102E6C0041F10001C90041EA5071C000C0184FEA9D
:102E7C0088024FEA987341F10001FDF791F902467F
:102E8C001F48A0FB02135B09190189B24FF0640CB7
:102E9C000CFB13231B013233A0FB0323C3F34F138F
:102EAC0003F0F0020A4492B203F00F0313449BB2F6
:102EBC00BB60337E1BB1636943F008036361E36855
:102ECC0043F40053E360284602B0BDE8F0874FF4AA
:102EDC0080524FF4C0698DE76FF01200B5E76FF0C8
:102EEC005700B2E74521074802F065FFE1E76FF0B4
:102EFC000405E8E70546E6E758710008F484000885
:102F0C001F85EB51CC8400084FF0E02399691A69B6
:102F1C00986912F4803F01D1814208D2074B1A689C
:102F2C00074909680A441A604FF0E0231B69044BF7
:102F3C001B681B1A014A106818447047A014002023
:102F4C009C140020094B102283F8232044F29F127A
:102F5C00074B1A600020074B18604FF0E0235A61B2
:102F6C0098611A6942F007021A61704700ED00E09F
:102F7C009C140020A014002008B5FFF7C5FF0C4BD3
:102F8C0018680C4A11680844106000221A600A4A3A
:102F9C001368C01A0949A1FB0010800B44F2A01160
:102FAC0001FB0033136001F0D7F8FEF799FE08BD62
:102FBC00A014002098140020941400202D34A9F99A
:102FCC0011B1B0F1FF3F3CD070B5394B1D68B0F179
:102FDC00FF3F41D0012842DD40F2E533984240DC0E
:102FEC00441E4FF01003EFF3118683F31288BFF3E6
:102FFC006F8FFFF789FF4FF0E02399692D4B1A680B
:10300C00104418602C4B00221A602C4B1A68831A3F
:10301C002AD444F2A01C0CFB043303F583431F3366
:10302C00274CA4FB03439B0B121A0CFB032340F20B
:10303C001A4293421DD9234A93421CD91C4B1A6045
:10304C001BE04FF0E022136923F001031361184BCE
:10305C004FF07F421A60704740F2E530BCE7002425
:10306C00BFE740F2E534BCE7114B40F21A421A605C
:10307C0003E040F21A430E4A13604FF0E0239C69C0
:10308C000B4A1268013A5A6100229A61A14209D294
:10309C002D1B0D442844074B186086F31188BFF391
:1030AC006F8F70BD0D1B2844024B1860F5E700BFF5
:1030BC009C14002098140020A014002094140020CC
:1030CC002D34A9F92094FF0010B54FF01003EFF345
:1030DC00118483F31288BFF36F8FFFF715FF074B33
:1030EC001B681844064B1B68C01A84F31188BFF385
:1030FC006F8F044BA3FB0030800B10BD9814002085
:10310C00941400202D34A9F9AF2817D8F8B504462B
:10311C000D46164603090B4A52F823705FB1384628
:10312C0003F009FE38B133462A4604F00F01384645
:10313C0003F04CFAF8BD6FF01200FBE76FF01500CE
:10314C00704700BFDC8500080A4B1B6813F0007F3A
:10315C000DD10020074B1B6813F0005F00D001203D
:10316C00044B1B6813F0006F00D001207047012046
:10317C00F0E700BF00380240014B1860704700BFF9
:10318C0050000020034600287AD03F4A126802F40F
:10319C004042B2F5404F22D000223B49096801F46D
:1031AC004041B1F5004F3AD03749096801F440412C
:1031BC00B1F5804F52D035490B6823F00F03134300
:1031CC000B600221314B1B6803F00F0301399A424B
:1031DC0001D00029F6D19A4254D00120704702F157
:1031EC000F6202F58C52904215D8002228498B426E
:1031FC0001D902B9042227498B4201D902B9032211
:10320C0025498B4200D942B124498B42C5D9002AA9
:10321C00C3D10122C1E70522E8E70222BDE701F193
:10322C000F6101F5A3418B4201D902B905221C495A
:10323C008B4201D902B9042216498B4201D902B939
:10324C00032215498B4200D932B114498B42ABD9B8
:10325C00002AA9D10122A7E70222A5E70D498B423A
:10326C0001D902B903220C498B4200D932B10B4966
:10327C008B42A0D9002A9ED101229CE702229AE718
:10328C00012070470020704700700040003C024055
:10329C00000E2707804A5D050087930380C3C90190
:1032AC00001BB70070B50C460B68C3F30313254A1B
:1032BC00D35C20FA03F5244B1B68AB4231D30026B8
:1032CC00224A136843F080731360204B1B6813F081
:1032DC00007FFAD023681D4A916821F0F0010B435E
:1032EC009360936823F0030343F002039360174B3E
:1032FC009B6803F00C03082BF9D16268134B996897
:10330C0021F4E0510A439A60A268996821F4604163
:10331C000A439A600C4B1B68AB4209D86EB130461D
:10332C0070BD2846FFF72EFF06460028F2D1C7E7EE
:10333C002846FFF727FF0646F0E72846FFF71CFF55
:10334C00EDE700BF0886000850000020003802405E
:10335C00F8B506460F4614461D46FFF7F5FE002845
:10336C0035D12146304603F0CFFB1A4B1B6813F4C2
:10337C00003F10D1012F24D0164A136823F4802368
:10338C001360144A136843F480331360114A1268B3
:10339C0012F4003FFAD022686668A4680D494F68A1
:1033AC000D4B3B4042F4800242EA861213434B60C1
:1033BC004B6823F4403323434B602946FFF772FFDD
:1033CC00F8BD044A136843F480231360D9E7012045
:1033DC00F6E700BF003802400080BFFF08B510229E
:1033EC00034902F068FE08B1022008BD0120FCE789
:1033FC00A886000808B581681023044A103902F029
:10340C0007FD00B908BD0120FCE700BFA886000835
:10341C0030B585B0044602A9012003F065FC0028F4
:10342C0069D16946032003F05FFC012803D0002812
:10343C0063D100241AE022464921314802F0BBFC3A
:10344C0003238DF8003001228DF801208DF8023015
:10345C008DF8033000238DF80430EAE72B79042B28
:10346C0029D09DF80A20934225D00134022C3BD858
:10347C0004EB4403234A02EB43059DF8081012F8B1
:10348C00130003F059FB0028EFD09DF8001068786A
:10349C0003F052FB0028E8D0AB78042B03D09DF846
:1034AC000B209342E1D1EB78042BD7D09DF803206D
:1034BC009342DAD1D2E76B79022B07D0032B11D0D0
:1034CC00042B01D0104A02E0104A00E0104A4921B6
:1034DC00104802F070FC6879831EDBB2022B08D90D
:1034EC00FF2006E00C4AF2E749210C4802F063FC8D
:1034FC00012005B030BDFF20FBE7FF20F9E700BF3E
:10350C0030860008B8860008C879000828860008AC
:10351C00188600087C860008208600089086000823
:10352C00034B00E01833034A9342FBD3704700BFB0
:10353C0058710008D872000870B50646114B53F844
:10354C00204009E0404217E0EB681870EA685378B5
:10355C0043F0010353700834731C0A4A52F82330A9
:10356C00A3420DD96568236828469847002DF2D0F0
:10357C000028EBD00028E5DBFF28E5DDFF20E3E7A2
:10358C0070BD00BFCC86000838B5054628B303785B
:10359C002BB3144C00E01834134B9C4208D020463B
:1035AC0003F0C9FB0028F6D02368AB42F3D112E03C
:1035BC000C4C00E018340C4B9C420BD0204603F012
:1035CC00BAFB0028F6D02168284602F069FD0028D5
:1035DC00F0D100E00024204638BD0446FBE700246F
:1035EC00F9E700BF58710008D872000804280CD8FD
:1035FC00DFE800F0030D0507090006487047064890
:10360C00704706487047064870470648704706489A
:10361C00704700BF34870008088700081887000827
:10362C0024870008E4860008F486000830B108B549
:10363C0003F0A6FB20B1037823B108BD0248704704
:10364C000148FAE70048F8E74487000810B504463B
:10365C004521034802F0AFFB204603F079FB00BF85
:10366C004C870008F0B583B005460E464FF01003AA
:10367C00EFF3118783F31288BFF36F8F00F044FCD4
:10368C0004462846FFF7B2FF0346002200922A4662
:10369C004521114802F08FFB1EB1F369C3F30803F7
:1036AC00ABB92046FFF7C2FF0346224645210B4823
:1036BC0002F081FB31462846FFF7C8FF87F31188DB
:1036CC00BFF36F8F2046FEF781FD03B0F0BD45219F
:1036DC00034802F070FBE4E760870008B887000835
:1036EC009087000810B586B0104C04EBC01400EBAA
:1036FC0040020F4B03EBC2030022059201210491FF
:10370C000F2103910292019200930A4B4FF4A07285
:10371C0009494FF4B07C0CFB0011204600F0E2F894
:10372C00637B23F00403637306B010BDA00000207C
:10373C00A4140020AF6D0008003D002070B586B0C9
:10374C0000F0D6FB1B4D1C4B9D611C4B05930123BC
:10375C00049300240394029401940094184B4FF4A6
:10376C0020521849284600F0BDF806466B7B23F022
:10377C0004036B73284603F061FB002C02DD30461A
:10378C0006B070BD2046FFF7ADFF0F4A02EBC41226
:10379C0004EB4401084B03EBC103DA601C7504EB2A
:1037AC0084110A4A02EB411202F502625A6001349A
:1037BC00E3E700BF20010020A4140020D8870008F4
:1037CC00DD370008E0140020A0000020603E00203F
:1037DC0008B50A4B01221A700220FFF7ADFE00F06B
:1037EC003DFD0320FFF7A8FE00F0ACF8FCF746FE09
:1037FC00034A137B23F00103137308BDD914002073
:10380C002001002008B50146014A0248FEF73EFAA5
:10381C00DD3700082001002008B50648064A121AB8
:10382C00002102F089FC0548054A121A002102F019
:10383C0083FC08BDA0000020DC1400200000001058
:10384C000000001000B5A1B01C4B83F308881C4C81
:10385C00636943F400736361F02384F8223000251C
:10386C00E57725766576A57684F82050636A43F46F
:10387C00E0236362FEF768FCFEF7E6F84FF0FF33D7
:10388C00A362E362FEF768FDFEF7B6FC01248DF837
:10389C000D408DF80C4019951A951C95094BC3F8E1
:1038AC0008D0FFF73DFE2846FFF746FE2046FFF7FF
:1038BC0043FEFFF743FFFFF7A5FF00BF8046002044
:1038CC0000ED00E0A414002008B553EA020102D177
:1038DC0003F058FA08BD0249183000F0B1FBF9E7C3
:1038EC00816E0008F0B585B004460E4615461F469D
:1038FC0000F158038365C3650E9B04220D9903F0F8
:10390C0045FA2A463146204603F02BFA05460C9B15
:10391C0002930B9B01930A9B00933B460246314654
:10392C002046FEF76DF900236365054B9B6823B1B8
:10393C001B6F2367284605B0F0BD2367FAE700BF6D
:10394C00A414002010B586B01D4C14E0E36A059356
:10395C00236A0493E3690393A36902936369019354
:10396C0023690093E368A26861682068FFF7BAFFD7
:10397C0023685C653034134B9C42E7D300F0DEF8CF
:10398C000F4C00E030340F4B9C4214D2636AB3F1FD
:10399C00FF3FF7D023EAE373D817820042EA937211
:1039AC009900C91840EB02004A1840EB000320684C
:1039BC00FFF78AFFE6E700F029FA06B010BD00BF5A
:1039CC009C0000209C00002038B504464FF01003EA
:1039DC00EFF3118583F31288BFF36F8F03F0CEFAE8
:1039EC0040B10022826703F029FA2946064800F00C
:1039FC0089F838BDA368E268934203D001221344CE
:103A0C00A360F2E70022FAE7C814002010B582B0D8
:103A1C004FF01004EFF3118184F31288BFF36F8F12
:103A2C00846844B1013C846081F31188BFF36F8FCB
:103A3C00002002B010BD53EA020406D0009201939C
:103A4C000246054800F0CEF9F3E781F31188BFF385
:103A5C006F8F6FF00F00ECE7C8140020B3F1FF3F3D
:103A6C0008BFB2F1FF3F00D1704708B502491830CA
:103A7C0000F0E6FA08BD00BF816E000808B5084BDF
:103A8C001B6803B908BDFFF71FFB0346044A106807
:103A9C000344044A1361002103F0D4FAF2E700BF97
:103AAC00D0140020A414002070B504460D46002349
:103ABC004FF01002EFF3118682F31288BFF36F8F71
:103ACC000CE0022BB8BF022313600B4B1D60FFF7F9
:103ADC00D5FF86F31188BFF36F8F012353B9074BC2
:103AEC0000221A6104EB84035B00054A1360002C6E
:103AFC00E7DCEAE770BD00BFCC140020A414002062
:103B0C00D014002008B5084621B9EFF3058313B98A
:103B1C00012100E0002111F0010F07D0064B9A693A
:103B2C009B689A4202D0FEF717F803E080F31188E5
:103B3C00BFF36F8F08BD00BFA414002000234FF00B
:103B4C001002EFF3118182F31288BFF36F8F09E03B
:103B5C00064B9A68D37B013BD37381F31188BFF377
:103B6C006F8F0123002BF3D0704700BFA4140020EB
:103B7C0038B504460F4803F05AF9054670B184B9BC
:103B8C000D4B9B685A7B12F01F0F0AD1AA6942B9E0
:103B9C00DA897F2A05D9084A93610AE0064BDD6869
:103BAC00EDE7054B9B68AB4201D0FFF767FF024B7B
:103BBC009D6138BDC0140020A414002038B5054602
:103BCC00427B90F90D30002B28DB6B7B63F07F037D
:103BDC006B731A4B53F81C4F9C422DD06CB1214681
:103BEC00284603F0FDF8002820DC34B1134B1B6A87
:103BFC009C4202D02468002CF0D1104B1A6A03F1BD
:103C0C001C0129606A6015601D620C4B9868A84203
:103C1C0014BF00200120FFF7ABFF38BD02F07F027C
:103C2C0042730146064803F0FAF8CEE763686B600E
:103C3C002C601D606560E8E70024CFE7A414002029
:103C4C00C014002010B54FF01003EFF3118483F370
:103C5C001288BFF36F8F214B9B68214A12689342E5
:103C6C0017D01F4A002111601E4A126872B3DA89FC
:103C7C007F2A15D85A7B12F01F0F1BD193F90E1007
:103C8C00194A1268914217DB184A934216D0012246
:103C9C0007E0FFF7F3FE84F31188BFF36F8F1CE08E
:103CAC0000229AB10D4A1269824209DD101A0B4B9F
:103CBC0018610EE00022F4E70022F2E70022F0E7A0
:103CCC001846FFF77BFFFFF7D9FE02E0034B0022FB
:103CDC001A6184F31188BFF36F8F10BDA4140020F8
:103CEC00C8140020D0140020CC140020A000002008
:103CFC0038B5437B90F90D20002A2DDB044613F0D8
:103D0C001F0F05D182690AB1002202E0012200E0F6
:103D1C0000220AB363F07F036373144B53F81C5FE8
:103D2C009D4220D06DB12946204603F059F8002859
:103D3C0013DC35B10D4B1B6A9D4202D02D68002D52
:103D4C00F0D10A4B1A6A03F11C0121606260146005
:103D5C001C620020FFF70CFF38BD6B6863602560A8
:103D6C001C606C60F5E70025DCE700BFA4140020A4
:103D7C0010B54FF01003EFF3118483F31288BFF3E7
:103D8C006F8F437B13F0040F04D184F31188BFF3BE
:103D9C006F8F10BD23F004034373FFF7A9FF214677
:103DAC000148FFF7AFFEF4E7CC14002010B5044631
:103DBC00427B90F90D30002B08DB084B9868A04231
:103DCC0014BF00200120FFF7D3FE10BD02F07F02CC
:103DDC0042730146024803F022F8EEE7A4140020D7
:103DEC00C014002010B50C461146064B9868064BC3
:103DFC001860DDE9022303F09FF82046FDF7ACFEC6
:103E0C0010BD00BFA4140020C814002010B500235E
:103E1C004FF01002EFF3118482F31288BFF36F8F0F
:103E2C000CE00D4B9A68D37B0133D3730020FFF762
:103E3C009FFE84F31188BFF36F8F0123002BF0D00A
:103E4C004FF01003EFF3118083F31288BFF36F8FE1
:103E5C0002F0D0FF10BD00BFA4140020437B13F070
:103E6C00080F42D170B5054643F00803437303F0C5
:103E7C00DF03437313F0800F2BD1AB685BB1284683
:103E8C0002F0ACFF294602F0CAFF6B7B23F0020361
:103E9C006B730023AB6005F1180003F0B5F85835CF
:103EAC002C68AC421DD0E4B1204602F097FF2146AD
:103EBC0002F0B5FF637B23F0020363730026A66058
:103ECC0004F1180003F0A0F8A6672046FFF710FFD6
:103EDC00E6E703F07F0343730146044802F09FFFBB
:103EEC00CBE70120FFF744FE70BD7047C0140020E3
:103EFC0008B5044803F06DF800210846FFF7D4FD1F
:103F0C0008BD00BFBC140020014B9868704700BF6F
:103F1C00A414002038B54FF01003EFF3118583F390
:103F2C001288BFF36F8F437B13F0080F04D085F317
:103F3C001188BFF36F8F38BD0446FFF78FFF084B16
:103F4C009B68A34204D085F31188BFF36F8FF2E70F
:103F5C00EFF30583002BF6D12846FDF7FDFDF2E7C4
:103F6C00A414002008B50948094A121A094902F09C
:103F7C00B4F8094A09490A4802F0AFF809480A4A54
:103F8C00121A0A4902F0A9F808BD00BF000000206F
:103F9C009C0000201C880008000000001C88000801
:103FAC00000000200000001000000010B88800087D
:103FBC00034B1868984200D070470020FCE700BF04
:103FCC005400002030B1044A5268904201D000687D
:103FDC0070470020704700BF5400002008B5044B08
:103FEC001B680BB1002008BDFFF76EF8FBE700BFA4
:103FFC00D414002010B5FFF7DBFF0446FFF7EEFFEB
:10400C007CB1236962691B1A62EBE070B3F1004F5B
:10401C0070F1000208DA002801DB184606E00023E4
:10402C00FBE76FF0004001E06FF00040034B1B69B1
:10403C0013B1834200DA184610BD00BFA41400204F
:10404C00B3F1FF3F08BFB2F1FF3F7DD02DE9F04740
:10405C00044692461D46816000234FF01002EFF398
:10406C00118782F31288BFF36F8F21E01AF10108D8
:10407C0045F10009FFF7B2FF18EB000349EBE070C4
:10408C002361606136E0511A66EB03030161436101
:10409C004368636020601C60446000283ED0FFF7DA
:1040AC0087FF844241D087F31188BFF36F8F0123C0
:1040BC00002B47D153466FF00101B1EB0A014FF0D1
:1040CC00FF3060EB0502002AD0DB204A11685268F1
:1040DC005B1842EB05026FF00101CB1A60EB020298
:1040EC0018461146012B72F1000301DA0120002160
:1040FC0020616161FFF75CFF0028CED00269466940
:10410C0021696369914273EB060CBCDB891A63EB82
:10411C00060321616361FFF755FFEDE70C4B5A680D
:10412C002360626014605C60B9E7FFF763FF0346CD
:10413C0018B1084A12698242B5D000211846FEF720
:10414C003FFFB0E7BDE8F087704700BFA00100203B
:10415C0054000020A414002070B50446FFF772FD33
:10416C004FF01003EFF3118583F31288BFF36F8FB9
:10417C00284B1C6020E0284801684668891846EBEB
:10418C00E276016046609B1A224A136000220023EB
:10419C00C4E90423204602F020FF85F31188BFF305
:1041AC006F8FA368204698474FF01003EFF31185EB
:1041BC0083F31288BFF36F8FFFF7FAFE044640B10A
:1041CC0002694169134B1B68D817934270EB0101CC
:1041DC00D1DA44B10F4B1968236962695B1A62EB3F
:1041EC00E172236162610C4A0A4E306813685168AF
:1041FC001B1841EBE0711360516000243460FFF731
:10420C00F9FE2146FEF7DCFE85F31188BFF36F8FB4
:10421C0070BD00BFD4140020A001002010B50023F5
:10422C004FF01002EFF3118482F31288BFF36F8FFB
:10423C00184619460CE0FEF747FF074A1368516809
:10424C00C01841F1000184F31188BFF36F8F012373
:10425C00002BF0D010BD00BFA001002008B5034A10
:10426C000349044801F08CFD08BD00BF64810008BF
:10427C00E4870008F4870008704770B582B00446E4
:10428C0001A90079FCF748F9A568019B1D44236836
:10429C001C892E1902F0EDFB4FF01002EFF3118385
:1042AC0082F31288BFF36F8F2B5983F308887368DE
:1042BC00984702B070BD012907D0022907D011B16F
:1042CC006FF01500704701207047032070470846B7
:1042DC0070470020704770472DE9F0439DB015469C
:1042EC009946249FDDF89480279C6846FDF776F864
:1042FC0014B1289B002B06DC2B89EE6833446E89A5
:10430C001E44002513E01A462146684601F09BFC2A
:10431C00F2E723463A462946484601F05BFD034640
:10432C0088B922463946684601F08DFC2544B542D1
:10433C0004D2741B4445ECD94446EAE769462698F6
:10434C0001F0ACFC002318461DB0BDE8F0832DE94C
:10435C00F04383B000284AD00C46174699460646CF
:10436C00002947D0002A48D00D89CB681D4404236E
:10437C000DEB03022946384601F02CFD804600283F
:10438C003ED1BDF8042046F608139A421ED063892C
:10439C00002B3BD1BDF8042046F607139A4238D1C6
:1043AC0034607760A6F808909DF82830B372638962
:1043BC002B44F36063892B44BDF8062013447361CE
:1043CC0004353561404603B0BDE8F0836389BDF820
:1043DC0006108B4217D104230DEB030229443846F7
:1043EC0001F0F8FC0028D5D04FF0FF38EAE74FF089
:1043FC00FF38E7E74FF0FF38E4E74FF0FF38E1E72D
:10440C004FF0FF38DEE74FF0FF38DBE74FF0FF38B7
:10441C00D8E74FF0FF38D5E700284DD0F0B583B082
:10442C000F4616461D4604460368002B48D04368C9
:10443C000BBB4FF0FF313AE004230DEB0302216973
:10444C00606801F0C7FC014600283CD1A37A1BB17F
:10445C002269E3689A4239D223894FF6FF7293425C
:10446C0017D0BDF80420934213D0BDF80600236981
:10447C001844043020612069636998421AD2236879
:10448C005B89002BD8D0E3688342D5D104302061FE
:10449C00D2E715B1BDF804302B80236904333B609F
:1044AC00BDF8063033802269134404332361084677
:1044BC0003B0F0BD0121FAE74FF0FF310846704719
:1044CC004FF0FF31F3E74FF0FF31F0E70121EEE75A
:1044DC0070B582B005460C461146022301AA20464F
:1044EC0000F0DBFC00BB0646019A1F2A0ED923689C
:1044FC00A2F1200120221944284601F0EEFD236888
:10450C00019A13442360304602B070BDC2F1200200
:10451C000021284601F010FE019AC2F1200021680A
:10452C00284401F0DAFDEAE76FF00206EBE730B55C
:10453C0085B0054601911446302303AA214601A8F3
:10454C0000F0ABFC98B9019B039A1344A34211D819
:10455C00224601A92846FFF7BBFF70B9224601A9E4
:10456C0005F12000FFF7B4FF50B905B030BD4FF096
:10457C00FF30FAE76FF00100F7E76FF00200F4E7A5
:10458C006FF00300F1E700EB40003030704708B5E6
:10459C0001F091FD08BD00EB4000C001704708B56B
:1045AC00FFF7F9FF303008BD0B78022B09D0012B37
:1045BC0009D0032B02D14FF4C07070474FF0FF307D
:1045CC007047032070474FF4C070704710B5044615
:1045DC0001F058FC2378022B05D0C0B2FFF7DFFFA7
:1045EC00A368181A10BDC0B2FFF7CDFFF8E730B5BD
:1045FC0083B00C4601A9FCF723F9054610B12846F7
:10460C0003B030BD019802F094FA04232246A0F1C5
:10461C000801019801F0DEFB0546019801F0D9FB79
:10462C00EDE708B581680122203902F0F8FA08BDDF
:10463C0010B582B00446019102F07BFA04230DEB15
:10464C000302A0F10801204602F0B8FA02B010BD36
:10465C00002070470020704738B50446006A01F00E
:10466C0011FC0546A06D01F00DFC854200D32846D7
:10467C0038BD38B50546806D01F0ABFB002408E071
:10468C00C4F101032C2202FB0353186A01F0A1FBB5
:10469C000134012CF4D938BD2DE9F04182B0044627
:1046AC000D4617460020FFF706FE01A9C0B2FDF724
:1046BC009BF940B14FF00108019801F08AFB40468C
:1046CC0002B0BDE8F0812C2303FB05431E89DB6897
:1046DC001E4404236A463146019801F07BFB804658
:1046EC0040BB2C2101FB05446489BDF8002046F633
:1046FC0008139A420CD004BBBDF8002046F60713F1
:10470C009A421DD12644BDF802301E443E60D3E7C8
:10471C00BDF802108C4202D04FF00308CCE7042302
:10472C006A463144019801F055FB0028E4D04FF063
:10473C000108C1E74FF00108BEE74FF00308BBE7E3
:10474C004FF00308B8E7F0B583B005460C460020DF
:10475C00FFF7B1FD01A9C0B2FDF746F9D0B9064685
:10476C00019801F098FB0746019801F032FB2C21CF
:10477C0001FB04510023032B05D8CA5C974207D1D7
:10478C000133DBB2F7E701233BB1304603B0F0BD98
:10479C000023F9E74FF0FF36F7E74FF0FF36F4E769
:1047AC0010B582B00346084680220192012907D039
:1047BC00032910D0022912D1DA6D03F1600402E052
:1047CC005A6A03F1280401A9FDF732F908B9019BD3
:1047DC00236002B010BD1A6D03F15404F3E70120FD
:1047EC00F7E738B504460121FFF7DAFF10B10125D0
:1047FC00284638BD03212046FFF7D2FF60B90221BD
:10480C002046FFF7CDFF054608B10125F0E720460D
:10481C00FFF722FFA066EBE70925E9E7F8B50546A7
:10482C000F4616460024012C10DC33462C2202FBCA
:10483C0004522146284600F05BFA034608B90134BD
:10484C00F1E7002C03DD17B9002300E00023184624
:10485C00F8BD38B505460C46006AFFF73AFD2071E5
:10486C002B6A5B68A360256038BD0023837183606D
:10487C00C3600123437103600371C37170474379B3
:10488C00012B01D0002070470368012B01D00020C0
:10489C0070470379012B01D000207047012070472D
:1048AC0038B50546FCF7A4F895F86440E31EDBB276
:1048BC00012B0DD9022C03D0042C01D0032C06D1D2
:1048CC00002000F0E5F810B1FF2385F8643038BD06
:1048DC00002000F0F0F80028ECD0FF2485F86440AC
:1048EC00EAE770B584B005460C468B7943B10220DB
:1048FC0003A9FDF779F828B10124204604B070BD56
:10490C000120F5E70398FFF761FE0646A96E2046E5
:10491C0000F00AFA3518039801F0B4FA0646039829
:10492C0001F0B9FA0146082201A801F005FC23792F
:10493C008DF80430F3B201AA2946039801F068FA05
:10494C00044600B10124039801F043FAD5E708B5F9
:10495C0001F07CFA08BD2DE9F04706460F46002110
:10496C000846FFF7A8FC044601210020FFF7A3FC32
:10497C003B789C4223D0984223D1012399462C2288
:10498C0002FB03639C6A013CB06EFFF708FE804695
:10499C0000252C2303FB09635B6A03EBC402D2F8EA
:1049AC0004A053F834101B685246C91A3846FFF756
:1049BC00CEFF013C55444545EBD3BDE8F0870023C1
:1049CC00DCE70120F9E730B583B00C4615466946A3
:1049DC00032002F089F9E97901290DD19DF8033002
:1049EC00012B0ED0A9682046FFF722FE2046FEF7C9
:1049FC0001FD002003B030BD0022204602F089F9F1
:104A0C00ECE7204602F016F9ECE770B582B00546EB
:104A1C000E46FCF787FAF060012807D004460228FE
:104A2C0006D000B10724204602B070BD022000E081
:104A3C00012001A9FCF7D8FF08B10124F3E73246A5
:104A4C0029460198FCF786F9044618B1019801F043
:104A5C00C0F9E8E7019802F06CF8014601230DF16A
:104A6C000302019801F0B6F9044608B10124EDE700
:104A7C0001220DF10301019802F06DF810B1012330
:104A8C008DF803309DF8033003F00F03F371DDE76D
:104A9C0010B582B001A90120FCF7A6FF18B10124C2
:104AAC00204602B010BD0198FFF7BBFD04460198EB
:104ABC0001F08FF9F4E710B584B003A90120FCF7DD
:104ACC0093FF18B10124204604B010BD01A903982E
:104ADC0002F0BDF8044660B99DF80730032B03D0F3
:104AEC00039801F076F9EEE7039802F0A3F8044678
:104AFC00F6E70124F4E710B48446836D9C6800202B
:104B0C0001E001391846002907DBDCF8243003EBFF
:104B1C00C1035B6803449C42F3D20131116010BCA9
:104B2C0070472DE9F04188B00E4615461C46536A75
:104B3C0053F830201B68A2EB0308A86EFFF72FFD7B
:104B4C00AB6A013B06EB08016A6A52F83330126813
:104B5C009B1A994201D9371A00E037462368012B7A
:104B6C0022D00023A37107A90120FCF73DFF06A961
:104B7C000320FCF739FF05A90220FCF735FF237948
:104B8C00012B17D02379022B43D02379032B60D030
:104B9C00079801F01EF9069801F01BF9059801F031
:104BAC0018F908B0BDE8F081BE4201D00123D9E765
:104BBC000023D7E7059882680021FFF7C8FE236819
:104BCC00012B0FD00197002300934346059A0699B9
:104BDC002846FBF7E5FF21462846FFF782FE022315
:104BEC002371CFE7224605992846FFF7ECFEA379FF
:104BFC00002BE7D107992846FFF7ADFE224607990F
:104C0C002846FFF7E0FE059882680021FFF79FFE1B
:104C1C00D8E7324641460698FFF799FE0197CDF842
:104C2C0000804346069A07992846FBF7B9FF23688C
:104C3C00012B06D021462846FFF753FE0323237190
:104C4C00A3E7A379002BF5D106992846FFF783FE3D
:104C5C00F0E7324641460798FFF779FE0197CDF809
:104C6C0000800023079A05992846FBF799FFA37942
:104C7C009BB9A7790023A37121462846FFF731FE83
:104C8C0023680133236001232371002F80D0324627
:104C9C0000210598FFF75BFE7AE70598FFF796FC75
:104CAC000346AA6E5200019247440097079A059951
:104CBC002846FBF775FF03A9059801F0C8FF9DF87E
:104CCC000F30012B0BD09DF80D1001290BD1A168D1
:104CDC000798FFF7ADFC0798FEF78CFBC9E7079820
:104CEC0001F0A8FFEFE70022079802F012F8EEE7B8
:104CFC0030B583B015460020FFF7DDFA01A9C0B22C
:104D0C00FCF772FE044620B104B10124204603B026
:104D1C0030BD20232A460021019801F05BF804469F
:104D2C00019801F056F8EFE701EB410C03685A1EAD
:104D3C000379013B03FB01F102FB0C10704770B5CA
:104D4C0082B004460D464FF0000C6346E6466146C1
:104D5C0002E001310EF1010E934201D3634504D2FE
:104D6C00606A00EBC10040680344944501D363457D
:104D7C0004D9206D00EBCE00406884449342E8D304
:104D8C009445E6D36345E4D1002602E0019901394C
:104D9C00013600290EDB01AA2046FFF7ACFE2B687A
:104DAC00013BB342F2D82B46224601460198FFF74D
:104DBC00B8FEEBE702B070BD10B50368A1EB030EB3
:104DCC00BEF1000F54DD93F800C093F90040002CA5
:104DDC000ADB5C1C04601B78136013680268891A78
:104DEC008B4257D8002010BD0CF07F0C0CF1FF3C0F
:104DFC00BCF1030F3FD8DFE80CF0020B1727BEF114
:104E0C00010F3BDD5B781360036802330360E4E75A
:104E1C00BEF1020F35DD5C789B7843EA0423136006
:104E2C00036803330360D8E7BEF1030F2CDD93F85E
:104E3C0001C09C78240244EA0C44DB7823431360C1
:104E4C00036804330360C8E7BEF1040F1FDD93F859
:104E5C0001C09C78240444EA0C6493F803C044EA2F
:104E6C000C241B7923431360036805330360B4E7F8
:104E7C006FF05F00B7E76FF06300B4E76FF05F00AF
:104E8C00B1E76FF05F00AEE76FF05F00ABE76FF07C
:104E9C005F00A8E76FF05F00A5E710B50468A1EB11
:104EAC00040CBCF1000F08DD94F800C09C4507D140
:104EBC0001340460FFF780FF10BD6FF05F00FBE76B
:104ECC006FF06100F8E738B5054614460323FFF789
:104EDC00E4FF40B923683BB1013B23602B681A788F
:104EEC002AB901332B6038BD6FF06700FBE76FF018
:104EFC006700F8E72DE9F04182B004460D461746ED
:104F0C009846302301AAFFF7C8FF064670BB2368FA
:104F1C00E91A002933DD1B783A4642F8043B256830
:104F2C00019B1D44062329462046FFF7B6FF064683
:104F3C00E0B92368BB6079685A182260AA4219D07C
:104F4C005B5C424642F8043B2368013323602946EC
:104F5C002046FFF731FF064640B92368C8F80830F1
:104F6C00D8F8042013442360AB420BD1304602B076
:104F7C00BDE8F0810C214046FCF76AF8F6E76FF0CB
:104F8C005F06F3E76FF06506F0E7013949B201E01F
:104F9C00013949B2002903DB50F82130002BF7D03E
:104FAC00481C40B2704700EB8101002307E051F828
:104FBC00042C43EA520341F8043CD3076146A1F1A7
:104FCC00040C8142F3D8704770B4039EA0FB01100F
:104FDC001D6814680C1945EB00058C4275EB00013B
:104FEC0034BF012000203168014431601D60146021
:104FFC0070BC70472DE9F04F87B081460E461746BE
:10500C009846002505950495039519E0291B03ABDB
:10501C00009304AB05AA57F8211056F82400FFF7AB
:10502C00D3FF013464B2AC42F0DD059B49F8253066
:10503C00049B0593039B04930023039301356DB2EA
:10504C00454501DA0024EEE7C2461BE0291B03AB01
:10505C00009304AB05AA57F8211056F82400FFF76B
:10506C00B3FF013464B24445F0DB059B49F82A30A8
:10507C00049B0593039B0493002303930BF1010AF8
:10508C004FFA8AFA55464FEA4803013B9A4506DA2D
:10509C005FFA8AFBABEB0804013464B2E3E74FEA36
:1050AC00C803043B059A49F8032007B0BDE8F08F0C
:1050BC00002304E0002240F8232001335BB28B4232
:1050CC00F8DB704700231A468B420CDA10B450F808
:1050DC002340224301335BB28B42F8DBB2FA82F0FD
:1050EC00400910BC7047B3FA83F0400970474B116C
:1050FC0050F8230001F01F01012303FA01F10840CD
:10510C00704710B50446FFF740FF90B1024600F11E
:10511C008043013B54F82330002001E05B08013050
:10512C00002BFBD1531E9BB25B019BB2184400B207
:10513C0010BD0020FCE7002305E051F823C040F827
:10514C0023C001335BB29342F7DB7047013A52B292
:10515C00002A13DB10B450F8224051F822309C4244
:10516C0007D808D3013A52B2002AF4DA002010BC56
:10517C0070470120FBE74FF0FF30F8E70020704745
:10518C00013A52B24FF0000C002A11DB10B450F867
:10519C00223051F8224063404CEA030C013A52B2DF
:1051AC00002AF4DABCF1000018BF012010BC7047D3
:1051BC00BCF1000018BF0120704702FB00F0B2FAEE
:1051CC0082F2520901FB02F2104370472DE9F843B9
:1051DC008146884617461E460024214613E058F89F
:1051EC00243057F824501D440D44AB4214BF012207
:1051FC0000228CBF01200020FFF7DFFF014649F899
:10520C002450013464B2B442E9DB0846BDE8F883AB
:10521C0070B505461446006810F001060ED1214603
:10522C002846FFF7C0FE46B104F18044013C55F816
:10523C00243043F0004345F8243070BD13460A4631
:10524C0029462846FFF7C2FF0646E8E72DE9F84352
:10525C008146884617461E460024214613E058F81E
:10526C00243057F824505D1B6D1AAB4214BF012239
:10527C00002234BF01200020FFF79FFF014649F8B0
:10528C002450013464B2B442E9DB0846BDE8F8832B
:10529C0070B504461D469DF910603346FFF796FF26
:1052AC0030B9324621462846FFF750FF012805D079
:1052BC0033462A4621462046FFF7C8FF70BD70B51D
:1052CC0004461D469DF910603346FFF7BFFF00B939
:1052DC0070BD33462A4621462046FFF777FFF7E795
:1052EC002DE9F047A2B0824691461D4602AB0093D1
:1052FC000191AC01A4B229461046FFF702FF86B219
:10530C00A41B26B2B046002E11DB48F3471873429B
:10531C0006F01F0403F01F0358BF5C42414612A85D
:10532C00FFF7C6FE002C1ADD00210B4613E006F138
:10533C001F08EAE759F8237007FA04F008EB030298
:10534C00014322A800EB820242F8401CC4F1200168
:10535C0027FA01F101339D42ECD801244CE02A4696
:10536C00494612AB03EB8800FFF7E5FEF5E78B42ED
:10537C002CBF4FF0000C4FF0010CC4F1010322AF15
:10538C0007EB830353F8883C1950013252B2B2EB4D
:10539C00450F12DA22AB03EB840353F8883C9000E0
:1053AC0053F8223022A901EB820151F8401C591A02
:1053BC00A1EB0C018B42DAD1DFE7644514BF00246A
:1053CC000124294612A8FFF7EEFD6B1E22AA02EB60
:1053DC00850252F8401C22AA02EB830353F8402C9E
:1053EC0042EAC17243F8402C294612AB03EB85000C
:1053FC00FFF7D9FD013E36B2002E02DB00229446A7
:10540C00C5E722AB03EB84042A4654F8881C5046AB
:10541C00FFF791FE22B0BDE8F08770B590B004465E
:10542C001D469DF9506033466846FFF7E3FD334651
:10543C002A4669462046FFF753FF10B070BD30B5C1
:10544C0091B005461C4693F900306846FFF7D2FD33
:10545C00D4F8AC3069462846984711B030BD08B531
:10546C0013460A46FFF7EBFF08BD2DE9F04792B053
:10547C000546894614461F4693F90060314610468E
:10548C00FFF720FE10B112B0BDE8F0873A4649464E
:10549C000AA8FFF7E4FF3B460AAA294602A8FFF731
:1054AC00CEFF3A460AA90846FFF7D9FF3B462246EB
:1054BC0049464846FFF7C3FF3A4621462046FFF7C8
:1054CC00CEFF07F10408009643462246294628469B
:1054DC00FFF7DEFE00964346224621462046FFF7A4
:1054EC00D7FE00964346224629462046FFF7E7FEA4
:1054FC003B46224629462846FFF7A1FF0096434625
:10550C002A4629462046FFF7C3FE0096434622460C
:10551C0029462846FFF7BCFE00212846FFF7E7FD89
:10552C0000284AD03346424629462846FFF74EFE0D
:10553C00824631462846FFF736FD06F18043013B93
:10554C0055F8232042EACA7245F823203A462946E8
:10555C002046FFF784FF0096434602AA21462046C8
:10556C00FFF7ADFE0096434602AA21462046FFF700
:10557C00A6FE00964346224602A90846FFF79FFE68
:10558C003B4602AA29462846FFF759FF0096434698
:10559C000AAA29461046FFF792FE324621462846B3
:1055AC00FFF7C9FD324649462046FFF7C4FD324697
:1055BC000AA94846FFF7BFFD65E731462846FFF7C5
:1055CC00F2FCC3E72DE9F0418AB004460E461546BD
:1055DC002022002102A800F0AFFD0323029395F9CD
:1055EC0000802A4631462046FFF739FF2F1DCDF8A3
:1055FC0000803B4602AA21462046FFF760FE2B4660
:10560C00324621462046FFF71AFFCDF800803B4674
:10561C0005F1840221462046FFF73AFE0AB0BDE8A8
:10562C00F081F0B5A1B007460E4615461C4619464A
:10563C003046FFF747FDA0B92246314618A8FFF7C0
:10564C007AFD2246294610A8FFF775FD214608A8C9
:10565C00FFF72EFD0123089321466846FFF728FD2E
:10566C000DE021463846FFF723FD71E0214618A8CE
:10567C00FFF799FC2246294608A8FFF7C9FD2246E8
:10568C0010A918A8FFF762FD024600285BD0189BF2
:10569C0013F0010FEAD0109B13F0010F1ED0002A5B
:1056AC002DDD234610AA18A90846FFF7CFFD214689
:1056BC0018A8FFF778FC2246694608A8FFF746FDB4
:1056CC00002815DB23466A4608A90846FFF7BEFDED
:1056DC002246294608A8FFF79BFDD0E7214610A8D3
:1056EC00FFF761FC224629466846FFF791FDC6E7A5
:1056FC0023462A4608A90846FFF768FDE2E7234639
:10570C0018AA10A90846FFF7A1FD214610A8FFF71B
:10571C004AFC224608A96846FFF718FD00280BDB57
:10572C00234608AA69466846FFF790FD224629469B
:10573C006846FFF76DFDA2E723462A466946684690
:10574C00FFF744FDECE7224608A93846FFF7F3FCC7
:10575C0021B0F0BDF0B589B007460D4616461C4683
:10576C001A4631466846FFF77AFE23466A463946A2
:10577C003846FFF764FE2346324669466846FFF713
:10578C005EFE23466A4629462846FFF758FE09B0B6
:10579C00F0BD2DE9F0478AB08046894614461D4677
:1057AC00DDF848A0564616F9047B009733460246AE
:1057BC00214602A8FFF783FD524602A90846FFF7CF
:1057CC004EFE534602AA41464046FFF738FE53466A
:1057DC0002AA21462046FFF732FE009733464A467E
:1057EC0029462846FFF76BFD5246294602A8FFF7CB
:1057FC0036FE00973346424602A90846FFF75FFD86
:10580C0000973346224602A90846FFF758FD009739
:10581C003346424621462046FFF751FD5346224669
:10582C0049464846FFF70BFE0097334602AA41460D
:10583C002046FFF744FD5346224629462846FFF7EB
:10584C00FEFD009733464A4629462846FFF737FDAA
:10585C003A4602A92046FFF76EFC0AB0BDE8F08775
:10586C0070B505460E461446D11C07D441F387018A
:10587C002846FFF71DFC4FF0000C14E00331F5E750
:10588C00631EA3EB0C0323F0030116F80C2003F0AA
:10589C000303DB0002FA03F36A581A436A500CF153
:1058AC00010C4FFA8CFCA445EADB70BD8842B8BFF2
:1058BC00084670472DE9F843044689461D46B3F95E
:1058CC0002C01CF1070320D4DB1098461CF11F0CFE
:1058DC001DD44FEA6C17934200D390467EB23146EA
:1058EC002046FFF7E5FB424649462046FFF7B8FF46
:1058FC004FEAC802B5F90230B3EBC80F23D2D21A63
:10590C0004EB870C4FF0000E11E00733DCE70CF1D1
:10591C001F0CDEE75CF8043C23FA02F141EA0E01AD
:10592C004CF8041CC2F1200E03FA0EFE8446ACF1B6
:10593C000400A445EED82435324621462846FFF70C
:10594C0005FC012801D1BDE8F88333462A462146DF
:10595C002046FFF77BFCF6E72DE9F04FFBB08046C5
:10596C00049105921F46849C94F90050B4F90230BE
:10597C001F3339D443F34713029303F1FF397AAB46
:10598C0003EB8902002342F8C03C0DF1380A4AF8B7
:10599C0029300DF1180B4BF8293094F901204146B0
:1059AC0016A8FFF75DFFAB00039316AB03EB850660
:1059BC0094F9012008EB02013046FFF751FF94F9EE
:1059CC00012039465046FFF74BFF94F90120B918D6
:1059DC005846FFF745FF29465046FFF773FB28B1A1
:1059EC0000207BB0BDE8F08F1F33C3E72946584633
:1059FC00FFF768FB0028F3D104F12407029A0EA9E3
:105A0C003846FFF7A3FB012801D00020E9E7029AF2
:105A1C0006A93846FFF79AFB0128F6D1DDF8088075
:105A2C0043463A4606A962A8FFF7FBFD7AAB03EBA7
:105A3C008909002349F8203C2346059A049972A849
:105A4C00FFF738FFCDF800803B4662AA72A90846E2
:105A5C00FFF7E3FCCDF80880CDF800803B4662AA46
:105A6C000EA96AA8FFF7D9FC0DF1580B0DF5A47817
:105A7C002A4659464046FFF75EFBDDF80CA008EBC2
:105A8C000A092A4631464846FFF755FB04F14406FD
:105A9C002A4631463AA8FFF74EFB2A465346F118E0
:105AAC0032A8FFF748FB04F1040A009553463AAAC2
:105ABC00414662A8FFF703FC00944B46424632A9CC
:105ACC003AA8FFF766FE2B46524662A90846FFF736
